:020000040800F2
:1000000000000220B9020008C1020008C502000871
:10001000DD020008E1020008F9020008000000000B
:1000200000000000000000000000000011030008B4
:10003000150300080000000019030008551100080E
:100040002D0300082D0300082D0300082D030008D0
:100050002D0300082D0300082D0300082D030008C0
:100060002D0300082D0300082D0300082D030008B0
:100070002D0300082D0300082D0300082D030008A0
:100080002D0300082D0300082D0300082D03000890
:100090002D0300082D0300082D0300082D03000880
:1000A0002D0300082D0300082D0300082D03000870
:1000B0002D0300082D0300082D0300082D03000860
:1000C0002D0300082D0300082D0300082D03000850
:1000D0002D0300082D0300082D0300082D03000840
:1000E0002D0300082D0300082D0300082D03000830
:1000F0002D0300082D0300082D0300082D03000820
:100100002D0300082D0300082D0300082D0300080F
:100110002D0300082D0300082D0300082D030008FF
:100120002D0300082D0300082D0300082D030008EF
:100130002D0300082D0300082D0300082D030008DF
:100140002D0300082D0300082D0300082D030008CF
:100150002D0300082D0300082D0300082D030008BF
:100160002D0300082D0300082D0300082D030008AF
:100170002D0300082D0300082D03000800000000D7
:100180002D0300082D03000800B583B000F020FF08
:10019000384B394A1360394A136039490CE00A6810
:1001A0004B6801F10C04886803E01168196004339E
:1001B00004329842F9D82146324B9942EFD32E4B64
:1001C0001A68314B9A4204D12C4B1A682F4B9A4231
:1001D00000D0FEE7274B2E4A13602E4A13602E4BA9
:1001E0000AE0194651F8082B5B6802E00020106015
:1001F00004329342FAD80B46284A9342F1D3244B57
:100200001B6813B9234B1B6803B1FEE700F0F6FF30
:1002100001A8694600F0D0FE214B224DED1AAD1029
:10022000002404E01E4B53F8243098470134A542C3
:10023000F8DC1D4B1D4DED1AAD10002404E01A4BE7
:1002400053F8243098470134A542F8DC019800990E
:1002500000F0DCFF0546164B164CE41AA41004E02F
:10026000013C134B53F824309847002CF8DC284607
:1002700000F09CFEBABADECA000000201000002088
:100280003003000848030008785634123254769838
:100290001400002024000020480300085803000830
:1002A00058030008580300085803000858030008C2
:1002B000580300085803000808B5FFF765FF00BFA2
:1002C00000BEFEE71EF0040F0CBFEFF30880EFF353
:1002D00009807146124A104700BEFEE700BEFEE7E5
:1002E0001EF0040F0CBFEFF30880EFF30980714696
:1002F0000C4A104700BEFEE71EF0040F0CBFEFF3E0
:100300000880EFF309807146074A104700BEFEE7F8
:1003100000BEFEE700BEFEE700BEFEE7704700003D
:10032000D9020008F50200080D03000800BEFEE730
:10033000E01200080000002014000020E012000875
:100340000000001000000010140000202800002011
:08035000000000100000001085
:1003580010B50446074B1868074BA3FB002080091B
:1003680000F094F84FF0FF302146002200F04CF8DE
:10037800002010BD0C000020D34D621008B50B4BB7
:100388001A6842F400721A601A6842F480621A60AD
:100398001A6842F480721A60032000F017F80F20E0
:1003A800FFF7D6FF00F03CFF002008BD003C0240EC
:1003B800024B1A6801321A60704700BF1C00002007
:1003C800014B1868704700BF1C00002010B5044698
:1003D800C31E042B03D90A48A42100F0F1FD04F040
:1003E8000704084BD86820F4E0600004000C40EAD9
:1003F800042040F0BF6040F40030D86010BD00BF5A
:100408002C12000800ED00E070B506460D461446B3
:100418000F2A03D91A48BC2100F0D2FD0F2D03D9A9
:100428001748BD2100F0CCFD164BDB68C3F302234F
:10043800C3F10701042928BF04211A1D062A01D97E
:10044800033B00E00023012202FA01F101390D40CB
:100458009D4002FA03F3013B1C402C43002E06DAB0
:1004680006F00F062401E4B2074B9C5570BD240129
:10047800E4B206F1604000F5614080F8004370BDC9
:100488002C12000800ED00E014ED00E00138B0F196
:10049800807F0AD2064B5860F021064A82F8231062
:1004A8000020986007221A6070470120704700BF3B
:1004B80010E000E000ED00E010B50446042805D087
:1004C80020B1094840F2B31100F07AFD042C05D19F
:1004D800064B1A6842F004021A6010BD034B1A68F2
:1004E80022F004021A6010BD2C12000810E000E08F
:1004F8002DE9F04F83B007460D46A24B984223D012
:1005080003F5806398421FD003F5806398421BD09F
:1005180003F58063984217D003F58063984213D09F
:1005280003F5806398420FD003F5806398420BD09F
:1005380003F58063984207D003F58063984203D09F
:100548009148C52100F03CFD2B881BB98E48C62177
:1005580000F036FD6B68012B22D9112B20D0022B1D
:100568001ED0122B1CD0894A934219D002F5801252
:10057800934215D002F58012934211D0A2F5F812D9
:1005880093420DD002F58012934209D002F58012F1
:10059800934205D0032B03D07B48C72100F010FD00
:1005A800AB68022B03D97848C82100F009FD002464
:1005B80029E1A1460126A6402B6803EA0608B045B2
:1005C80040F020816B68022B01D0122B4BD12B6994
:1005D800C3B3092B36D0ABB3A3B39BB393B3012BEF
:1005E80030D02FD0022B2DD02CD02BD0032B29D0BC
:1005F800042B27D026D025D0052B23D022D0092B99
:1006080020D0062B1ED0092B1CD0072B1AD019D0AE
:1006180018D0082B16D015D014D0092B12D011D011
:100628000A2B0FD00ED00B2B0CD00C2B0AD009D0D4
:100638000D2B07D00C2B05D00F2B03D05248D921F6
:1006480000F0BEFCE308083357F8231004F0070253
:1006580092000F20904021EA0000296901FA02F275
:10066800024347F823203A684FEA440A4FF0030B45
:100678000BFA0AFB6FEA0B0B0BEA02026B6803F03A
:10068800030303FA0AF313433B606B685A1E012AFB
:1006980003D9112B01D0122B19D1EB68032B03D9E5
:1006A8003948EC2100F08CFCBA680BEA0202EB68CE
:1006B80003FA0AF31343BB607B6823EA06066B68F8
:1006C800C3F3001303FA09F949EA06067E60FB68DA
:1006D8000BEA030BAB6803FA0AF343EA0B03FB606C
:1006E8006B6813F0805F00F08D8000230193284B26
:1006F8005A6C42F480425A645B6C03F48043019361
:10070800019BA308991C234A52F8210004F0030214
:1007180092000F21914020EA01011A4887423BD0FC
:1007280000F5806087422BD000F58060874225D095
:1007380000F5806087421FD000F58060874219D09D
:1007480000F58060874213D000F5806087420DD0A5
:1007580000F58060874207D000F58060874201D1AC
:1007680008201AE0092018E0072016E0062014E007
:10077800052012E0042010E003200EE002200CE027
:1007880001200AE000000240601200080000111079
:100798000038024000380140002000FA02F20A4303
:1007A80002331C4941F823201B4B1A686FEA0803DF
:1007B80003EA0201686810F4803F01D048EA0201A8
:1007C800154A1160526803EA0201686810F4003F94
:1007D80001D048EA0201104A5160926803EA020116
:1007E800686810F4801F01D048EA02010A4A916043
:1007F800D2681340696811F4001F01D048EA020367
:10080800054AD36001340F2C7FF6D3AE03B0BDE8A0
:10081800F08F00BF00380140003C014070B505462C
:1008280014460E4621B9094840F2B11100F0C8FB40
:10083800012C04D905484FF4D97100F0C1FB0CB163
:10084800AE6170BD3604AE6170BD00BF60120008B5
:1008580030B583B0044603680F2B03D99C48F521B3
:1008680000F0AEFB236813F0010F45D06368012B3D
:1008780005D9052B03D09648FA2100F0A1FB954B2A
:100888009B6803F00C03042B0AD0924B9B6803F07F
:100898000C03082B0CD18F4B5B6813F4800F07D027
:1008A8008C4B1B6813F4003F26D0636823BBCDE153
:1008B8002279894B1A7063687BB1FFF781FD054681
:1008C80005E0FFF77DFD401B642800F2C181814BE4
:1008D8001B6813F4003FF4D00EE0FFF771FD0546E6
:1008E80005E0FFF76DFD401B642800F2B381794BEA
:1008F8001B6813F4003FF4D1236813F0020F6AD089
:10090800E368012B04D972484FF4967100F058FB44
:1009180023691F2B04D96E4840F22D1100F050FBBB
:100928006C4B9B6813F00C0F0AD06A4B9B6803F062
:100938000C03082B1BD1674B5B6813F4800F16D18F
:10094800644B1B6813F0020F03D0E368012B40F0DF
:100958008381604B196821F0F8012269F82090FA28
:10096800A0F0B0FA80F082400A431A6033E0E368EE
:10097800FBB10122594B1A60FFF722FD054605E03D
:10098800FFF71EFD401B022800F26881514B1B68CF
:1009980013F0020FF4D04F4B196821F0F8012269C7
:1009A800F82090FAA0F0B0FA80F082400A431A606A
:1009B80011E00022494B1A60FFF702FD054605E0E9
:1009C800FFF7FEFC401B022800F24A81414B1B68DE
:1009D80013F0020FF4D1236813F0080F2ED06369C7
:1009E800012B04D93A4840F26D1100F0E9FA636925
:1009F80093B101223A4B1A60FFF7E2FC054605E085
:100A0800FFF7DEFC401B022800F22C81314B5B6FA4
:100A180013F0020FF4D011E00022314B1A60FFF7F7
:100A2800CFFC054605E0FFF7CBFC401B022800F28F
:100A38001B81284B5B6F13F0020FF4D1236813F06E
:100A4800040F60D0A368012B06D9052B04D02048D9
:100A580040F2971100F0B4FA002301931D4B1A6C71
:100A680042F080521A641B6C03F080530193019B7F
:100A78001C4B1A6842F480721A60FFF7A1FC054605
:100A880005E0FFF79DFC401B022800F2EF80154BA4
:100A98001B6813F4807FF4D0227A134B1A70A36872
:100AA8008BB1FFF78DFC054607E0FFF789FC401B7B
:100AB80041F28833984200F2DB80064B1B6F13F03B
:100AC800020FF2D01FE0FFF77BFC054616E000BFDF
:100AD800A0120008003802400238024000004742D5
:100AE800800E47420070004070380240FFF768FCF3
:100AF800401B41F28833984200F2BC80644B1B6F64
:100B080013F0020FF2D1A369022B04D961484FF404
:100B1800E67100F055FAA369002B00F0AD805C4A3D
:100B2800926802F00C02082A00F0A880022B7AD101
:100B3800E3693BB1B3F5800F04D0564840F2D511B4
:100B480000F03EFA236A3F2B04D952484FF4EB7168
:100B580000F036FA636A323BB3F5BF7F04D94D48DB
:100B680040F2D71100F02CFAA36A022B0AD0042B0A
:100B780008D0062B06D0082B04D046484FF4EC7159
:100B880000F01EFAE36A043B0B2B04D9414840F2FB
:100B9800D91100F015FA00223F4B1A60FFF710FC3C
:100BA800054604E0FFF70CFC401B022868D8384BC8
:100BB8001B6813F0007FF5D1E269236A1A43636A60
:100BC80047F6C07191FAA1F1B1FA81F18B401A434D
:100BD800A36A5B08591E4FF4403393FAA3F3B3FAA0
:100BE80083F301FA03F31A43E16A4FF0706393FA4F
:100BF800A3F3B3FA83F301FA03F31A43244B5A60BD
:100C08000122254B1A60FFF7DBFB044604E0FFF7DF
:100C1800D7FB001B022835D81D4B1B6813F0007F3B
:100C2800F5D0002031E000221B4B1A60FFF7C8FB0B
:100C3800044604E0FFF7C4FB001B022824D8144B29
:100C48001B6813F0007FF5D100201EE001201CE096
:100C580003201AE0032018E0012016E0032014E026
:100C6800032012E0032010E003200EE003200CE034
:100C780003200AE0032008E0002006E0012004E049
:100C8800032002E0032000E0032003B030BD00BFD2
:100C980000380240A012000860004742224B9B68BF
:100CA80003F00C03042B3DD0082B01D01F487047DC
:100CB8001D4B586800F03F005B6813F4800F10D09C
:100CC8001B4BB3FBF0F0184B5A6847F6C0731A4039
:100CD80093FAA3F3B3FA83F322FA03F303FB00F0C6
:100CE8000FE0124BB3FBF0F00F4B5A6847F6C07396
:100CF8001A4093FAA3F3B3FA83F322FA03F303FB3C
:100D080000F0094B5A6802F440324FF4403393FA2A
:100D1800A3F3B3FA83F322FA03F301335B00B0FBC6
:100D2800F3F0704702487047003802400024F4008E
:100D380000127A0070B504460D460368013B0E2B7D
:100D480004D9904840F2372100F03AF9072D04D928
:100D58008C484FF40E7100F033F98B4B1B6803F08D
:100D68000F03AB4208D2EAB2874B1A701B6803F034
:100D78000F03AB4240F0F480236813F0020F1DD03C
:100D8800A368A3B1802B12D0902B10D0A02B0ED02B
:100D9800B02B0CD0C02B0AD0D02B08D0E02B06D01B
:100DA800F02B04D0774840F24F2100F009F9774B37
:100DB800996821F0F001A2680A439A60236813F049
:100DC800010F6BD06368032B04D96E4840F256219B
:100DD80000F0F6F86368012B05D16C4A126812F42A
:100DE800003F0FD1BEE09A1E012A05D8674A126853
:100DF80012F0007F06D1B7E0644A126812F0020FC1
:100E080000F0B480614A916821F003010B439360BC
:100E1800FFF7D6FA06466368012B0FD107E0FFF704
:100E2800CFFA801B41F28833984200F2A180574BD9
:100E38009B6803F00C03042BF1D12FE0022B0FD198
:100E480007E0FFF7BDFA801B41F28833984200F2B1
:100E580091804E4B9B6803F00C03082BF1D11DE0E9
:100E6800032B16D107E0FFF7ABFA801B41F288335A
:100E7800984200F28180454B9B6803F00C030C2BD1
:100E8800F1D10BE0FFF79CFA801B41F288339842BE
:100E980074D83E4B9B6813F00C0FF3D13A4B1B6888
:100EA80003F00F03AB4207D9EAB2374B1A701B683D
:100EB80003F00F03AB4263D1236813F0040F19D07A
:100EC800E36883B1B3F5805F0DD0B3F5A05F0AD0B6
:100ED800B3F5C05F07D0B3F5E05F04D029484FF4FD
:100EE8002D7100F06DF8294B996821F4E051E26802
:100EF8000A439A60236813F0080F1AD0236983B154
:100F0800B3F5805F0DD0B3F5A05F0AD0B3F5C05F2D
:100F180007D0B3F5E05F04D01A4840F2BB2100F0D7
:100F28004FF81A4B9A6822F46042216942EAC102DA
:100F38009A60FFF7B3FE154B9A6802F0F002F023AF
:100F480093FAA3F3B3FA83F322FA03F3104AD35CB8
:100F5800D840104B18600F20FFF7FAF9002070BD39
:100F6800012070BD012070BD012070BD012070BD41
:100F7800032070BD032070BD032070BD032070BD29
:100F8800012070BDA0120008003C02400038024059
:100F9800901200080C000020014B1868704700BF31
:100FA8000C000020FEE700BF08B50120FFF7FAFF9C
:100FB80001230360014B0B60704700BF0400002051
:100FC80008B5FFF7F1FF00BF08B500F009F8024BBC
:100FD800024A9A6008BD00BF00ED00E0000000086A
:100FE8000C4B1A6842F001021A60002199601A68D5
:100FF80022F0847222F480321A60074A5A601A6812
:1010080022F480221A60D9604FF00062034B9A6084
:10101800704700BF003802401030002400ED00E0A7
:10102800224B9B6803F00C03042B07D0082B09D034
:10103800002B2DD11E4A1F4B1A602CE01E4A1D4B57
:101048001A6028E0194B59685B6803F03F0311F4F4
:10105800800F09D0184AB2FBF3F3144A5268C2F35E
:10106800881202FB03F208E0114AB2FBF3F30F4ABD
:101078005268C2F3881202FB03F20C4B5B68C3F39D
:10108800014301335B00B2FBF3F20A4B1A6002E042
:10109800074A084B1A60054B9B68C3F30313074ABA
:1010A800D15C044B1A68CA401A6070470038024085
:1010B8000024F4000C00002000127A00D01200086E
:1010C80000B587B00B4B1A6B42F008021A630A4846
:1010D800836943F0805383614FF480530193012364
:1010E800029302220492039301A9FFF701FA07B0C1
:1010F8005DF804FB00380240000C02400A4B1A68F5
:101108000A4BA3FB02139B09013BB3F1807F09D271
:10111800074A5360F021074B83F82310002393609C
:1011280007231360704700BF0C000020D34D6210E6
:1011380010E000E000ED00E0034B1B681BB1024B20
:101148001A68013A1A6070472000002008B5FFF7B6
:101158002FF9FFF7F1FF08BD30B595B000240194D1
:10116800214B1A6C42F080521A641B6C03F08053B6
:101178000193019B02941D4B1A6842F480421A6045
:101188001B6803F480430293029B0123089309938D
:101198004FF480030F93082310934FF4A87311930F
:1011A80002251295072313930E9508A8FFF750FB05
:1011B8000F230393049505944FF4A05306934FF41B
:1011C8008053079303A80521FFF7B4FDFFF7E4FE5A
:1011D800074BA3FB00208009FFF758F90420FFF70D
:1011E8006BF915B030BD00BF0038024000700040F8
:1011F800D34D621008B5FFF7C1F8FFF7ADFFFFF751
:101208000FFF08BD08B5FFF779FFFFF759FF03483F
:101218004FF480510122FFF701FBF8E7000C024070
:10122800704700BF2E2E2F73797374656D2F7372FC
:10123800632F73746D333266342D68616C2F737449
:101248006D3332663478785F68616C5F636F72748F
:1012580065782E63000000002E2E2F737973746555
:101268006D2F7372632F73746D333266342D68611A
:101278006C2F73746D3332663478785F68616C5F95
:101288006770696F2E63000000000000010203040C
:1012980001020304060708092E2E2F73797374655B
:1012A8006D2F7372632F73746D333266342D6861DA
:1012B8006C2F73746D3332663478785F68616C5F55
:1012C8007263632E6300000000000000000000004D
:0812D8000102030406070809E6
:1012E0007856341218000020000000000024F4009A
:0412F0003254769866
:040000050800018965
:00000001FF
