:020000040800F2
:1000000000200020DD010008E5010008E9010008EA
:1000100000000000000000000000000000000000E0
:1000200000000000000000000000000005020008C1
:10003000000000000000000009020008ED060008B2
:100040001502000815020008150200081502000834
:100050001502000815020008150200081502000824
:100060001502000815020008150200081502000814
:100070001502000815020008150200081502000804
:100080001502000815020008000000001502000813
:1000900015020008150200081502000815020008E4
:1000A00015020008150200081502000815020008D4
:1000B0001502000800000000150200080000000002
:1000C0005FF808F130B583B000F0E0F9314B324A07
:1000D0001360324A1360324B324A03E011681960F0
:1000E0000433043230498B42F8D32B4B1A682F4B20
:1000F0009A4204D1294B1A682D4B9A4200D0FEE750
:10010000244B2C4A13602C4A13602C4B02E0002233
:100110001A6004332A4A9342F9D3264B1B68002BFA
:1001200003D1254B1B68002B00D0FEE700F0B2F98D
:1001300001A8694600F09EF9224B234DED1AAD103F
:10014000002404E0A2001F4BD35898470134A54275
:10015000F8DC1E4B1E4DED1AAD10002404E0A20089
:100160001A4BD35898470134A542F8DC01980099FE
:1001700000F0C0FA051C174B174CE41AA41004E059
:10018000013CA200134BD3589847002CF8DC281CE4
:1001900000F06AF9BABADECA000000202000002090
:1001A000000000203C08000824000020785634128B
:1001B00032547698240000203000002024000020D3
:1001C00034000020400200084002000840020008FD
:1001D00040020008400200084002000808B5FFF78E
:1001E00071FFC04600BEFEE704207146084202D0FF
:1001F000EFF3098001E0EFF308807146044A1047ED
:1002000000BEFEE700BEFEE700BEFEE7704700004E
:080210000102000800BEFEE738
:100218003C08000800000020240000203C080008DA
:10022800000000000000000024000020340000202E
:080238000000000000000000BE
:1002400070B5051C0E1C9023DB05984212D03C4B68
:1002500098420FD03B4B98420CD03B4B984209D070
:100260003A4B984206D03A4B984203D03948AE21D7
:1002700000F008F93268002A03D13648AF2100F0B7
:1002800001F93379032B03D93248B02100F0FAF891
:10029000F379022B03D92F48B12100F0F3F80024A1
:1002A0004BE00123A34032681A409A4244D133798B
:1002B000013B012B28D87379012B05D9032B03D0DF
:1002C0002448C12100F0DEF8AA68630003219940A8
:1002D0008A43AA60AA68717999400B1C1343AB60EA
:1002E000B379012B03D91B48C82100F0CBF8AA88A9
:1002F00023041B0C012199408A43AA80AA88B17962
:1003000099408BB21343AB80296863000322101C11
:1003100098408143296028683179994001432960D8
:10032000E9682004C00B82409143E960EA68F179F2
:1003300099400B1C1343EB6001340F2CB1D970BDF5
:100340000004004800080048000C00480010004865
:1003500000140048D807000838B5041C0D1C902371
:10036000DB05984213D00E4B984210D00D4B9842AB
:100370000DD00D4B98420AD00C4B984207D00C4B35
:10038000984204D00B488621FF3100F07BF8002D05
:1003900004D10848C321490000F074F8A56138BDB4
:1003A0000004004800080048000C00480010004805
:1003B00000140048D807000838B5041C0D1C902311
:1003C000DB05984213D00E4B984210D00D4B98424B
:1003D0000DD00D4B98420AD00C4B984207D00C4BD5
:1003E000984204D00B48CD21490000F04BF8002D75
:1003F00004D108489C21FF3100F044F8258538BD20
:100400000004004800080048000C004800100048A4
:1004100000140048D807000838B5041C0D1C0D4B0B
:10042000184201D1002803D10B480C4900F02AF8EA
:10043000012D03D908480A4900F024F8002D04D002
:10044000084B5A6914435C6103E0064B5A69A243A6
:100450005A6138BDA8FF81FE0C080008560500004F
:100460005705000000100240FEE7C04608B5012015
:10047000FFF7FAFF01230360014B0B607047C04692
:100480000400002008B5FFF7F1FFC04608B500F0F2
:100490005DF808BD08B500F08BF808BD82B00023F8
:1004A00001930093264B1968802252020A431A6076
:1004B000234B1A6880239B0213400093019B013356
:1004C0000193009B002B04D1019AA023DB019A42E7
:1004D000EED11B4B1B689A0302D50123009301E068
:1004E00000230093009B012B28D11122154B1A6089
:1004F000134B5A685A605A685A605968124A0A403F
:100500005A605968882252030A435A601968802247
:1005100052040A431A600A4B1B689A01FBD5084B28
:100520005A6803218A435A60596802220A435A6072
:10053000034B5B680C221340082BF9D102B07047C3
:100540000010024000200240FF7FC0FF08B5124BA0
:100550001968012211431960586810490140596017
:1005600018680F490140196018680E490140196068
:1005700058680D4901405960D96A0F208143D962FA
:10058000186B0A4901401963596B91435963002262
:100590009A60FFF783FF08BD001002400CB8FFF817
:1005A000FFFFF6FEFFFFFBFFFFFFC0FFACFEFFFFFC
:1005B00010B51E4B5B680C221340042B07D0082B90
:1005C00009D0002B22D11A4A1A4B1A6021E0184A8E
:1005D000184B1A601DE0154B5C68A4025A68240F82
:1005E0000234C0235B021A4204D1134B5C43114B0B
:1005F0001C600EE00D4BDB6A0F21194001310C48E5
:1006000000F09AF844430B4B1C6002E0084A094B87
:100610001A60064B5B681B061B0F084AD25CD2B2FD
:10062000044B1968D140196010BDC046001002404B
:1006300000127A001C00002000093D000C00002080
:1006400030B583B0802000030121FFF7E5FE802450
:10065000A4000094012369460B7100238B710322CF
:100660004A71CB71044D281CFFF7EAFD281C211CA0
:10067000FFF7A2FE03B030BD0008004808B50C4BE0
:100680001868FA21890000F057F80138094B9842A0
:100690000DD8094B5860094A106A0002000AC021AF
:1006A00009060143116200229A6007221A6008BD00
:1006B0001C000020FFFFFF0010E000E000ED00E064
:1006C000034B1860024B1B68002BFBD17047C046E0
:1006D0002C000020044B1B68002B03D0024B1A682F
:1006E000013A1A607047C0462C00002008B5FFF799
:1006F000F1FF08BD10B5FFF7C1FFFFF7A1FF002410
:100700000B4880218900FFF727FE002C02D1FA2038
:10071000800000E00748FFF7D3FF054880218900EB
:10072000FFF74AFEFA20FFF7CBFF0134E8E7C046A7
:1007300000080048EE020000002934D00123002206
:1007400010B488422CD301242407A14204D2814250
:1007500002D209011B01F8E7E400A14204D2814260
:1007600002D249005B00F8E7884201D3401A1A43DD
:100770004C08A04202D3001B5C0822438C08A04214
:1007800002D3001B9C082243CC08A04202D3001BCA
:10079000DC082243002803D01B0901D00909E3E744
:1007A000101C10BC7047002801D00020C04307B4C3
:1007B000024802A14018029003BDC0461900000083
:1007C0000029F0D003B5FFF7B9FF0EBC4243891AE8
:1007D0001847C0467047C0462E2E2F737973746534
:1007E0006D2F7372632F73746D333266302D737493
:1007F000647065726970682F73746D333266307817
:10080000785F6770696F2E63000000002E2E2F73D3
:10081000797374656D2F7372632F73746D333266E1
:10082000302D7374647065726970682F73746D33E2
:0C08300032663078785F7263632E6300DC
:10083C007856341228000020000000000000000050
:10084C00000000000102030406070809006CDC022A
:04085C003254769804
:04000005080000C52A
:00000001FF
