:020000040800F2
:1000000000000220B9020008C1020008C502000871
:10001000DD020008E1020008F9020008000000000B
:1000200000000000000000000000000011030008B4
:100030001503000800000000190300087D0D0008EA
:100040002D0300082D0300082D0300082D030008D0
:100050002D0300082D0300082D0300082D030008C0
:100060002D0300082D0300082D0300082D030008B0
:100070002D0300082D0300082D0300082D030008A0
:100080002D0300082D0300082D0300082D03000890
:100090002D0300082D0300082D0300082D03000880
:1000A0002D0300082D0300082D0300082D03000870
:1000B0002D0300082D0300082D0300082D03000860
:1000C0002D0300082D0300082D0300082D03000850
:1000D0002D0300082D0300082D0300082D03000840
:1000E0002D0300082D0300082D0300082D03000830
:1000F0002D0300082D0300082D0300082D03000820
:100100002D0300082D0300082D0300082D0300080F
:100110002D0300082D0300082D0300082D030008FF
:100120002D0300082D0300082D0300082D030008EF
:100130002D0300082D0300082D0300082D030008DF
:100140002D0300082D0300082D0300082D030008CF
:100150002D0300082D0300082D0300082D030008BF
:100160002D0300082D0300082D0300082D030008AF
:100170002D0300082D0300082D03000800000000D7
:100180002D0300082D03000800B583B000F070FDBA
:10019000384B394A1360394A136039490CE00A6810
:1001A0004B6801F10C04886803E01168196004339E
:1001B00004329842F9D82146324B9942EFD32E4B64
:1001C0001A68314B9A4204D12C4B1A682F4B9A4231
:1001D00000D0FEE7274B2E4A13602E4A13602E4BA9
:1001E0000AE0194651F8082B5B6802E00020106015
:1001F00004329342FAD80B46284A9342F1D3244B57
:100200001B6813B9234B1B6803B1FEE700F00AFE1D
:1002100001A8694600F020FD214B224DED1AAD10DA
:10022000002404E01E4B53F8243098470134A542C3
:10023000F8DC1D4B1D4DED1AAD10002404E01A4BE7
:1002400053F8243098470134A542F8DC019800990E
:1002500000F0F0FD0546164B164CE41AA41004E01D
:10026000013C134B53F824309847002CF8DC284607
:1002700000F0ECFCBABADECA00000020100000203A
:100280003003000848030008785634123254769838
:100290001400002024000020480300085803000830
:1002A00058030008580300085803000858030008C2
:1002B000580300085803000808B5FFF765FF00BFA2
:1002C00000BEFEE71EF0040F0CBFEFF30880EFF353
:1002D00009807146124A104700BEFEE700BEFEE7E5
:1002E0001EF0040F0CBFEFF30880EFF30980714696
:1002F0000C4A104700BEFEE71EF0040F0CBFEFF3E0
:100300000880EFF309807146074A104700BEFEE7F8
:1003100000BEFEE700BEFEE700BEFEE7704700003D
:10032000D9020008F50200080D03000800BEFEE730
:100330004C0F000800000020140000204C0F0008A3
:100340000000001000000010140000202800002011
:08035000000000100000001085
:1003580010B50446074B1868074BA3FB002080091B
:1003680000F094F84FF0FF302146002200F04CF8DE
:10037800002010BD0C000020D34D621008B50B4BB7
:100388001A6842F400721A601A6842F480621A60AD
:100398001A6842F480721A60032000F017F80F20E0
:1003A800FFF7D6FF00F08AFD002008BD003C0240A0
:1003B800024B1A6801321A60704700BF1C00002007
:1003C800014B1868704700BF1C00002010B5044698
:1003D800C31E042B03D90A48A42100F041FC04F0F1
:1003E8000704084BD86820F4E0600004000C40EAD9
:1003F800042040F0BF6040F40030D86010BD00BF5A
:10040800C80E000800ED00E070B506460D4614461B
:100418000F2A03D91A48BC2100F022FC0F2D03D95A
:100428001748BD2100F01CFC164BDB68C3F3022300
:10043800C3F10701042928BF04211A1D062A01D97E
:10044800033B00E00023012202FA01F101390D40CB
:100458009D4002FA03F3013B1C402C43002E06DAB0
:1004680006F00F062401E4B2074B9C5570BD240129
:10047800E4B206F1604000F5614080F8004370BDC9
:10048800C80E000800ED00E014ED00E00138B0F1FE
:10049800807F0AD2064B5860F021064A82F8231062
:1004A8000020986007221A6070470120704700BF3B
:1004B80010E000E000ED00E010B50446042805D087
:1004C80020B1094840F2B31100F0CAFB042C05D151
:1004D800064B1A6842F004021A6010BD034B1A68F2
:1004E80022F004021A6010BDC80E000810E000E0F7
:1004F80030B583B0044603680F2B03D99C48F52117
:1005080000F0AEFB236813F0010F45D06368012BA0
:1005180005D9052B03D09648FA2100F0A1FB954B8D
:100528009B6803F00C03042B0AD0924B9B6803F0E2
:100538000C03082B0CD18F4B5B6813F4800F07D08A
:100548008C4B1B6813F4003F26D0636823BBCDE1B6
:100558002279894B1A7063687BB1FFF731FF054632
:1005680005E0FFF72DFF401B642800F2C181814B95
:100578001B6813F4003FF4D00EE0FFF721FF054697
:1005880005E0FFF71DFF401B642800F2B381794B9B
:100598001B6813F4003FF4D1236813F0020F6AD0EC
:1005A800E368012B04D972484FF4967100F058FBA8
:1005B80023691F2B04D96E4840F22D1100F050FB1F
:1005C8006C4B9B6813F00C0F0AD06A4B9B6803F0C6
:1005D8000C03082B1BD1674B5B6813F4800F16D1F3
:1005E800644B1B6813F0020F03D0E368012B40F043
:1005F8008381604B196821F0F8012269F82090FA8C
:10060800A0F0B0FA80F082400A431A6033E0E36851
:10061800FBB10122594B1A60FFF7D2FE054605E0EF
:10062800FFF7CEFE401B022800F26881514B1B6881
:1006380013F0020FF4D04F4B196821F0F80122692A
:10064800F82090FAA0F0B0FA80F082400A431A60CD
:1006580011E00022494B1A60FFF7B2FE054605E09B
:10066800FFF7AEFE401B022800F24A81414B1B688F
:1006780013F0020FF4D1236813F0080F2ED063692A
:10068800012B04D93A4840F26D1100F0E9FA636988
:1006980093B101223A4B1A60FFF792FE054605E036
:1006A800FFF78EFE401B022800F22C81314B5B6F56
:1006B80013F0020FF4D011E00022314B1A60FFF75B
:1006C8007FFE054605E0FFF77BFE401B022800F28F
:1006D8001B81284B5B6F13F0020FF4D1236813F0D2
:1006E800040F60D0A368012B06D9052B04D020483D
:1006F80040F2971100F0B4FA002301931D4B1A6CD5
:1007080042F080521A641B6C03F080530193019BE2
:100718001C4B1A6842F480721A60FFF751FE0546B6
:1007280005E0FFF74DFE401B022800F2EF80154B55
:100738001B6813F4807FF4D0227A134B1A70A368D5
:100748008BB1FFF73DFE054607E0FFF739FE401B7A
:1007580041F28833984200F2DB80064B1B6F13F09E
:10076800020FF2D01FE0FFF72BFE054616E000BF90
:100778000C0F0008003802400238024000004742CF
:10078800800E47420070004070380240FFF718FEA4
:10079800401B41F28833984200F2BC80644B1B6FC7
:1007A80013F0020FF2D1A369022B04D961484FF468
:1007B800E67100F055FAA369002B00F0AD805C4AA1
:1007C800926802F00C02082A00F0A880022B7AD165
:1007D800E3693BB1B3F5800F04D0564840F2D51118
:1007E80000F03EFA236A3F2B04D952484FF4EB71CC
:1007F80000F036FA636A323BB3F5BF7F04D94D483F
:1008080040F2D71100F02CFAA36A022B0AD0042B6D
:1008180008D0062B06D0082B04D046484FF4EC71BC
:1008280000F01EFAE36A043B0B2B04D9414840F25E
:10083800D91100F015FA00223F4B1A60FFF7C0FDEE
:10084800054604E0FFF7BCFD401B022868D8384B7A
:100858001B6813F0007FF5D1E269236A1A43636AC3
:1008680047F6C07191FAA1F1B1FA81F18B401A43B0
:10087800A36A5B08591E4FF4403393FAA3F3B3FA03
:1008880083F301FA03F31A43E16A4FF0706393FAB2
:10089800A3F3B3FA83F301FA03F31A43244B5A6020
:1008A8000122254B1A60FFF78BFD044604E0FFF791
:1008B80087FD001B022835D81D4B1B6813F0007FED
:1008C800F5D0002031E000221B4B1A60FFF778FDBD
:1008D800044604E0FFF774FD001B022824D8144BDB
:1008E8001B6813F0007FF5D100201EE001201CE0FA
:1008F80003201AE0032018E0012016E0032014E08A
:10090800032012E0032010E003200EE003200CE097
:1009180003200AE0032008E0002006E0012004E0AC
:10092800032002E0032000E0032003B030BD00BF35
:10093800003802400C0F000860004742224B9B68B9
:1009480003F00C03042B3DD0082B01D01F4870473F
:100958001D4B586800F03F005B6813F4800F10D0FF
:100968001B4BB3FBF0F0184B5A6847F6C0731A409C
:1009780093FAA3F3B3FA83F322FA03F303FB00F029
:100988000FE0124BB3FBF0F00F4B5A6847F6C073F9
:100998001A4093FAA3F3B3FA83F322FA03F303FB9F
:1009A80000F0094B5A6802F440324FF4403393FA8E
:1009B800A3F3B3FA83F322FA03F301335B00B0FB2A
:1009C800F3F0704702487047003802400024F400F2
:1009D80000127A0070B504460D460368013B0E2BE1
:1009E80004D9904840F2372100F03AF9072D04D98C
:1009F8008C484FF40E7100F033F98B4B1B6803F0F1
:100A08000F03AB4208D2EAB2874B1A701B6803F097
:100A18000F03AB4240F0F480236813F0020F1DD09F
:100A2800A368A3B1802B12D0902B10D0A02B0ED08E
:100A3800B02B0CD0C02B0AD0D02B08D0E02B06D07E
:100A4800F02B04D0774840F24F2100F009F9774B9A
:100A5800996821F0F001A2680A439A60236813F0AC
:100A6800010F6BD06368032B04D96E4840F25621FE
:100A780000F0F6F86368012B05D16C4A126812F48D
:100A8800003F0FD1BEE09A1E012A05D8674A1268B6
:100A980012F0007F06D1B7E0644A126812F0020F24
:100AA80000F0B480614A916821F003010B43936020
:100AB800FFF786FC06466368012B0FD107E0FFF7B6
:100AC8007FFC801B41F28833984200F2A180574B8B
:100AD8009B6803F00C03042BF1D12FE0022B0FD1FC
:100AE80007E0FFF76DFC801B41F28833984200F263
:100AF80091804E4B9B6803F00C03082BF1D11DE04D
:100B0800032B16D107E0FFF75BFC801B41F288330B
:100B1800984200F28180454B9B6803F00C030C2B34
:100B2800F1D10BE0FFF74CFC801B41F2883398426F
:100B380074D83E4B9B6813F00C0FF3D13A4B1B68EB
:100B480003F00F03AB4207D9EAB2374B1A701B68A0
:100B580003F00F03AB4263D1236813F0040F19D0DD
:100B6800E36883B1B3F5805F0DD0B3F5A05F0AD019
:100B7800B3F5C05F07D0B3F5E05F04D029484FF460
:100B88002D7100F06DF8294B996821F4E051E26865
:100B98000A439A60236813F0080F1AD0236983B1B7
:100BA800B3F5805F0DD0B3F5A05F0AD0B3F5C05F91
:100BB80007D0B3F5E05F04D01A4840F2BB2100F03B
:100BC8004FF81A4B9A6822F46042216942EAC1023E
:100BD8009A60FFF7B3FE154B9A6802F0F002F02313
:100BE80093FAA3F3B3FA83F322FA03F3104AD35C1C
:100BF800D840104B18600F20FFF7AAFB002070BDEB
:100C0800012070BD012070BD012070BD012070BDA4
:100C1800032070BD032070BD032070BD032070BD8C
:100C2800012070BD0C0F0008003C02400038024053
:100C3800FC0E00080C000020014B1868704700BF2C
:100C48000C000020FEE700BF08B50120FFF7FAFFFF
:100C580001230360014B0B60704700BF04000020B4
:100C680008B5FFF7F1FF00BF08B500F009F8024B1F
:100C7800024A9A6008BD00BF00ED00E000000008CD
:100C88000C4B1A6842F001021A60002199601A6838
:100C980022F0847222F480321A60074A5A601A6875
:100CA80022F480221A60D9604FF00062034B9A60E8
:100CB800704700BF003802401030002400ED00E00B
:100CC800224B9B6803F00C03042B07D0082B09D098
:100CD800002B2DD11E4A1F4B1A602CE01E4A1D4BBB
:100CE8001A6028E0194B59685B6803F03F0311F458
:100CF800800F09D0184AB2FBF3F3144A5268C2F3C2
:100D0800881202FB03F208E0114AB2FBF3F30F4A20
:100D18005268C2F3881202FB03F20C4B5B68C3F300
:100D2800014301335B00B2FBF3F20A4B1A6002E0A5
:100D3800074A084B1A60054B9B68C3F30313074A1D
:100D4800D15C044B1A68CA401A60704700380240E8
:100D58000024F4000C00002000127A003C0F000868
:100D6800034B1B681BB1024B1A68013A1A607047A3
:100D78002000002008B5FFF71BFBFFF7F1FF08BDB7
:100D880030B595B000240194214B1A6C42F0805282
:100D98001A641B6C03F080530193019B02941D4B52
:100DA8001A6842F480421A601B6803F48043029375
:100DB800029B0123089309934FF480030F930823A0
:100DC80010934FF4A87311930225129507231393D8
:100DD8000E9508A8FFF78CFB0F2303930495059441
:100DE8004FF4A05306934FF48053079303A80521AB
:100DF800FFF7F0FDFFF720FF074BA3FB002080095A
:100E0800FFF744FB0420FFF757FB15B030BD00BFC8
:100E18000038024000700040D34D621008B5FFF75B
:100E2800ADFAFFF7ADFFFFF74BFF08BD0822204BD7
:100E38001A63A3F530534FF080529A614FF0804205
:100E48009A611A6842F080721A609A6842F00072D9
:100E58009A605A685A60DA6842F08072DA601A68F2
:100E680042F080521A609A6842F000529A605A68BA
:100E78005A60DA6842F08052DA600E4B4FF48052C2
:100E88009A614FF080429A61002300E001330A4AD8
:100E98009342FBDD074B4FF080529A614FF480423A
:100EA8009A61002300E00133034A9342FBDDE4E743
:100EB80000380240000C0240404B4C00704700BF15
:100EC8002E2E2F73797374656D2F7372632F73745D
:100ED8006D333266342D68616C2F73746D333266EE
:100EE8003478785F68616C5F636F727465782E63BD
:100EF80000000000000000000102030401020304D6
:100F0800060708092E2E2F73797374656D2F737277
:100F1800632F73746D333266342D68616C2F73746C
:100F28006D3332663478785F68616C5F7263632E04
:100F3800630000000000000000000000010203043C
:040F48000607080987
:100F4C007856341218000020000000000024F40031
:040F5C0032547698FD
:040000050800018965
:00000001FF
